{
  "contractName": "SoloWallet",
  "abi": [
    {
      "inputs": [
        {
          "internalType": "address",
          "name": "_owner",
          "type": "address"
        }
      ],
      "stateMutability": "nonpayable",
      "type": "constructor"
    },
    {
      "anonymous": false,
      "inputs": [
        {
          "indexed": false,
          "internalType": "uint256",
          "name": "amount",
          "type": "uint256"
        }
      ],
      "name": "depositFired",
      "type": "event"
    },
    {
      "anonymous": false,
      "inputs": [
        {
          "indexed": false,
          "internalType": "uint256",
          "name": "amount",
          "type": "uint256"
        }
      ],
      "name": "fallbackFired",
      "type": "event"
    },
    {
      "anonymous": false,
      "inputs": [
        {
          "indexed": false,
          "internalType": "uint256",
          "name": "amount",
          "type": "uint256"
        }
      ],
      "name": "withdrawFired",
      "type": "event"
    },
    {
      "stateMutability": "payable",
      "type": "fallback"
    },
    {
      "inputs": [],
      "name": "_balance",
      "outputs": [
        {
          "internalType": "uint256",
          "name": "",
          "type": "uint256"
        }
      ],
      "stateMutability": "view",
      "type": "function"
    },
    {
      "stateMutability": "payable",
      "type": "receive"
    },
    {
      "inputs": [],
      "name": "deposit",
      "outputs": [],
      "stateMutability": "payable",
      "type": "function"
    },
    {
      "inputs": [],
      "name": "withdraw",
      "outputs": [],
      "stateMutability": "nonpayable",
      "type": "function"
    }
  ],
  "bytecode": "0x608060405234801561001057600080fd5b5060405161065b38038061065b833981810160405281019061003291906100dc565b80600160006101000a81548173ffffffffffffffffffffffffffffffffffffffff021916908373ffffffffffffffffffffffffffffffffffffffff16021790555050610109565b600080fd5b600073ffffffffffffffffffffffffffffffffffffffff82169050919050565b60006100a98261007e565b9050919050565b6100b98161009e565b81146100c457600080fd5b50565b6000815190506100d6816100b0565b92915050565b6000602082840312156100f2576100f1610079565b5b6000610100848285016100c7565b91505092915050565b610543806101186000396000f3fe6080604052600436106100385760003560e01c80633ccfd60b146100df57806356c4e05a146100f6578063d0e30db0146101215761008e565b3661008e573460008082825461004e919061035e565b925050819055507fe425115404d42f08428e87c8ec7479aaad65e60eb12053aaa703ae2a24de2f043460405161008491906103c3565b60405180910390a1005b3460008082825461009f919061035e565b925050819055507fe425115404d42f08428e87c8ec7479aaad65e60eb12053aaa703ae2a24de2f04346040516100d591906103c3565b60405180910390a1005b3480156100eb57600080fd5b506100f461012b565b005b34801561010257600080fd5b5061010b6102ce565b60405161011891906103c3565b60405180910390f35b6101296102d4565b005b3373ffffffffffffffffffffffffffffffffffffffff16600160009054906101000a900473ffffffffffffffffffffffffffffffffffffffff1673ffffffffffffffffffffffffffffffffffffffff16146101bb576040517f08c379a00000000000000000000000000000000000000000000000000000000081526004016101b29061043b565b60405180910390fd5b6000600160009054906101000a900473ffffffffffffffffffffffffffffffffffffffff1673ffffffffffffffffffffffffffffffffffffffff166000546040516102059061048c565b60006040518083038185875af1925050503d8060008114610242576040519150601f19603f3d011682016040523d82523d6000602084013e610247565b606091505b505090508061028b576040517f08c379a0000000000000000000000000000000000000000000000000000000008152600401610282906104ed565b60405180910390fd5b7f2cb3955810cffc8f19841c2262b0321e08e0becfdd03a416bde93beeb80805126000546040516102bc91906103c3565b60405180910390a16000808190555050565b60005481565b346000808282546102e5919061035e565b925050819055507f4855583b680bd29b848a6129bb3bcf124d71cff6ba5da72256394d78b283d22e3460405161031b91906103c3565b60405180910390a1565b6000819050919050565b7f4e487b7100000000000000000000000000000000000000000000000000000000600052601160045260246000fd5b600061036982610325565b915061037483610325565b9250827fffffffffffffffffffffffffffffffffffffffffffffffffffffffffffffffff038211156103a9576103a861032f565b5b828201905092915050565b6103bd81610325565b82525050565b60006020820190506103d860008301846103b4565b92915050565b600082825260208201905092915050565b7f4e6f7420436f6e7472616374204f776e65720000000000000000000000000000600082015250565b60006104256012836103de565b9150610430826103ef565b602082019050919050565b6000602082019050818103600083015261045481610418565b9050919050565b600081905092915050565b50565b600061047660008361045b565b915061048182610466565b600082019050919050565b600061049782610469565b9150819050919050565b7f4661696c656420546f2057697468647261770000000000000000000000000000600082015250565b60006104d76012836103de565b91506104e2826104a1565b602082019050919050565b60006020820190508181036000830152610506816104ca565b905091905056fea2646970667358221220f1eec96e63deb83696d67e6fb71ab4adec16cd9219262e430f904abfecc99e8464736f6c634300080b0033",
  "immutableReferences": {},
  "source": "// SPDX-License-Identifier: MIT\npragma solidity ^0.8.11;\n\ncontract SoloWallet {\n    uint public _balance;\n    address payable private owner;\n\n    event depositFired(uint amount);\n    event withdrawFired(uint amount);\n    event fallbackFired(uint amount);\n\n    modifier onlyOwner(){\n        require(owner == msg.sender,\"Not Contract Owner\");\n        _;\n    }\n\n    constructor(address _owner){\n        owner = payable(_owner);\n    }\n\n    fallback() external payable {\n        _balance += msg.value;\n        emit fallbackFired(msg.value);\n    }\n\n    receive() external payable {\n        _balance += msg.value;\n        emit fallbackFired(msg.value);\n    }\n\n    function deposit() public payable {\n        _balance += msg.value;\n        emit depositFired(msg.value);\n    }\n\n    function withdraw() public onlyOwner {\n        (bool success, ) = owner.call{value: _balance }(\"\");\n        require(success,\"Failed To Withdraw\");\n        emit withdrawFired(_balance);\n\n        _balance = 0;\n    }\n}",
  "sourcePath": "/Users/mnkhod/Projects/Diverse-SmartContract-Examples/diverse-solo-wallet/contracts/SoloWallet.sol",
  "compiler": {
    "name": "solc",
    "version": "0.8.11+commit.d7f03943.Emscripten.clang"
  },
  "schemaVersion": "3.4.3",
  "updatedAt": "2022-01-21T15:23:18.100Z",
  "devdoc": {
    "kind": "dev",
    "methods": {},
    "version": 1
  },
  "userdoc": {
    "kind": "user",
    "methods": {},
    "version": 1
  }
}